:020000040000FA
:100000000C9423070C9454070C9454070C94540735
:100010000C9454070C9454070C9454070C945407F4
:100020000C9454070C9454070C9454070C945407E4
:100030000C9454070C9454070C9454070C945407D4
:100040000C9454070C9454070C9454070C945407C4
:100050000C9454070C9454070C9454070C940F1BE5
:100060000C9454070C94D91A0C94AF1A0C9454079E
:100070000C9454070C9454070C9454070C94540794
:100080000C9454070C9454070C9454070C94540784
:100090000C94791A0C944F1A0C9454070C9454072E
:1000A0000C9454070C9454070C9454070C94540764
:1000B0000C9454070C9454070C9454070C94540754
:1000C0000C9454070C9454070C9454070C94540744
:1000D0000C9454070C9454070C9454070C94540734
:1000E0000C9454070C94B2070C94F6070C94AD07CB
:1000F0000C942A170C9429170C9444100C94DA07CA
:100100000C9459170C9449180C9446170C94860EAD
:100110000C9409100C94A0290C943A170C944108E3
:100120000C94F2070C9432080C9405180C94E50812
:100130000C9404080C94C9070C9400080C94C5078F
:100140000C94AD140C94DD150C94900D0C942218A5
:100150000C94C1070C94FC070C94E4070C9432092E
:100160000C9495080C94E0070C94591B0C94E80728
:100170000C9452170C94D0070C94D6070C940508D5
:100180000C94EE070C947E150C94A3080C94CD07E8
:100190000C94351800000000003E5B4F5B3E3E6B48
:1001A0004F6B3E1C3E7C3E1C183C7E3C181C577D11
:1001B000571C1C5E7F5E1C00183C1800FFE7C3E75D
:1001C000FF0018241800FFE7DBE7FF30483A060E6F
:1001D0002629792926407F050507407F05253F5AB6
:1001E0003CE73C5A7F3E1C1C08081C1C3E7F142226
:1001F0007F22145F5F005F5F06097F017F006689D1
:10020000956A606060606094A2FFA29408047E0416
:100210000810207E201008082A1C08081C2A08083C
:100220001E101010100C1E0C1E0C30383E383006FC
:100230000E3E0E06000000000000005F00000007F8
:10024000000700147F147F14242A7F2A1223130826
:10025000646236495620500008070300001C224102
:10026000000041221C002A1C7F1C2A08083E0808A6
:100270000080703000080808080800006060002056
:10028000100804023E5149453E00427F4000724939
:100290004949462141494D331814127F10274545DD
:1002A00045393C4A494931412111090736494949F3
:1002B00036464949291E0000140000004034000061
:1002C00000081422411414141414004122140802CA
:1002D000015909063E415D594E7C1211127C7F493D
:1002E0004949363E414141227F4141413E7F494992
:1002F00049417F090909013E414151737F080808BE
:100300007F00417F41002040413F017F081422418E
:100310007F404040407F021C027F7F0408107F3EE8
:100320004141413E7F090909063E4151215E7F0955
:10033000192946264949493203017F01033F4040BC
:10034000403F1F2040201F3F4038403F63140814A7
:100350006303047804036159494D43007F414141DF
:100360000204081020004141417F040201020440C0
:1003700040404040000307080020545478407F2844
:100380004444383844444428384444287F3854543A
:10039000541800087E090218A4A49C787F0804045D
:1003A0007800447D40002040403D007F10284400FC
:1003B00000417F40007C047804787C08040478388D
:1003C00044444438FC1824241818242418FC7C08BD
:1003D000040408485454542404043F44243C40403A
:1003E000207C1C2040201C3C4030403C44281028ED
:1003F000444C9090907C4464544C44000836410036
:100400000000770000004136080002010204023CAF
:100410002623263C1EA1A161123A4040207A38547E
:1004200054555921555579412254547842215554F7
:10043000784020545579400C1E527212395555554A
:1004400059395454545939555454580000457C4135
:100450000002457D420001457C407D1211127DF075
:10046000282528F07C545545002054547C547C0A9F
:10047000097F4932494949323A4444443A324A4868
:1004800048303A4141217A3A42402078009DA0A06C
:100490007D3D4242423D3D4040403D3C24FF2424BE
:1004A000487E4943662B2FFC2F2BFF0929F620C0DD
:1004B000887E090320545479410000447D4130482E
:1004C000484A32384040227A007A0A0A727D0D1971
:1004D000317D2629292F28262929292630484D40D3
:1004E00020380808080808080808382F10C8ACBACF
:1004F0002F102834FA00007B000008142A1422224E
:10050000142A14085500550055AA55AA55AAFF5596
:10051000FF55FF000000FF00101010FF001414141E
:10052000FF001010FF00FF1010F010F0141414FC66
:10053000001414F700FF0000FF00FF1414F404FC83
:10054000141417101F10101F101F1414141F001064
:100550001010F0000000001F101010101F101010DD
:1005600010F010000000FF101010101010101010EC
:10057000FF10000000FF140000FF00FF00001F102C
:10058000170000FC04F414141710171414F404F4E6
:100590000000FF00F714141414141414F700F714D7
:1005A0001414171410101F101F141414F414101026
:1005B000F010F000001F101F0000001F14000000CA
:1005C000FC140000F010F01010FF10FF141414FFC2
:1005D000141010101F00000000F010FFFFFFFFFFBD
:1005E000F0F0F0F0F0FFFFFF0000000000FFFF0F51
:1005F0000F0F0F0F3844443844FC4A4A4A347E02F5
:10060000020606027E027E02635549416338444475
:100610003C04407E201E2006027E020299A5E7A52A
:10062000991C2A492A1C4C7201724C304A4D4D309B
:100630003048784830BC625A463D3E494949007EC0
:100640000101017E2A2A2A2A2A44445F4444405157
:100650004A444040444A51400000FF0103E080FF0B
:10066000000008086B6B083612362436060F090F97
:1006700006000018180000001010003040FF0101B3
:10068000001F01011E00191D1712003C3C3C3C00DC
:100690000000000000002100240027002A002D0097
:1006A0003000330001010000040107010A011100BC
:1006B0007F96290001007F9628003A0155C002105C
:1006C00010C10141C50400228040360168B001001C
:1006D000B102B011B40102B60302023BB701C63A3F
:1006E0000155F704A9512C82C0020D0DC10243002F
:1006F000C20100C50400480048B40100B60302026C
:100700003BE00F0F211C0B0E084998380911031408
:100710001000E10F0F2F2B0C0E0647763707110440
:10072000231E00B00100B30402000000B40100D099
:1007300003074218D103000710D2020102D30201BD
:1007400002D4020102C005123B000211C1031010C5
:1007500088C50103C60102C80C00323645061637AB
:100760007577540C00CC0100F603010100CF0300A3
:100770008130ED0464031281E803851078CB0539DC
:100780002C003402F70120EA020000B00100B1029F
:10079000001BB40100C00121C10111C5023F3CC7CB
:1007A00001B5360148F20100260101E00F0F2624B1
:1007B0000B0E0954A8460C17090F0700E10F00198A
:1007C0001B0410072A473903060630380F3601008C
:1007D000B00100C10410100202C006003500000183
:1007E00002C50104D2020104CA0100EA0180B90372
:1007F000FF83577F967F96B60125C0065050013C77
:100800001E08B4070240002A2A0D787F01F20B1659
:1008100016030808080810041616FD03110235B265
:10082000050C0C003333B70135BB012BC00104C2EA
:100830000201FFC30111C40120C6010FD002A4A10F
:10084000E00ED000050E150D374347091512161995
:10085000E10ED000050D0C062D44400E1C18161993
:100860003A01557F0AB00103E2013FC00122E201D3
:1008700000B00100C0010AB001000000000000004B
:1008800000000000000000000000FFFF0F00000457
:100890000062080008080003000C01030B5A020361
:1008A00006090303171004030023050300170603BA
:1008B00009630703090C08030C1009033222100016
:1008C00016001100010112000000130001000001D8
:1008D0003003010137020301000D800200610201B3
:1008E000B0C1FFFF3200010000010200000103005F
:1008F0003010090001000C000000900000800F0083
:100900000000100200001102EF00120200001302AA
:100910008F01000500000105000002055F000104D1
:10092000010004040000FFFF320007000001FFFF88
:100930003200000200000102000000000000000080
:1009400000000000000000000100A4000100FFFF03
:100950000A00600000270800080830001402310077
:100960001537320004063300160E3400112235000C
:1009700000153600078537000714380003143900C6
:10098000200090001500100010041100370229000B
:1009900046002A00460007000000120089011300EB
:1009A0000011FFFF96001200B901010000010200D2
:1009B000000203003010090001000A0000000D00D1
:1009C00000000E003000610001006A00000080009D
:1009D00000008100000082005F009200000193008F
:1009E0000107FFFF500007000001E500F07801005B
:1009F00000010200000203003010040000000500A6
:100A0000000008000702090000000A0000000C00B6
:100A100000000D0000000F00000010000000110099
:100A20000700120000001300000007000100FFFF94
:100A3000C8001000901611002702FFFF32001200BC
:100A40000D00FFFF32001300001229000A002B00E6
:100A50000D00FFFF320020000000210000003000E8
:100A600000003100040432000300350005043600A4
:100A700008083700070438000303390007073C0063
:100A800004053D00080860000027610001006A00BD
:100A90000000800000008100000082000000830050
:100AA000000084000000850000009000100092000B
:100AB000000007003301E500008000000100010094
:100AC00000010200000703003010040000000800CD
:100AD0000202090000000A0000000C0000000D00E6
:100AE00000000F00000010000000110007001200BD
:100AF000000013000000FFFF32001000B0171100CB
:100B00000700FFFF0A0012003A01FFFF0A0013006E
:100B1000001A29000C00FFFF0A003000000031001D
:100B200005053200040035000600360007073700CF
:100B3000050138000200390007073C0004073D00AA
:100B40000708600000A7610001006A0000002100A2
:100B500000002000000080000000810000008200F2
:100B60000000830000008400000085000000900069
:100B70001000920000009300030095001001970000
:100B800000009800000007007301FFFF3200FF0023
:100B90000100F30008000000010001000001020054
:100BA00000070300301008000203090000001000D5
:100BB0000000110007001200000013000000FFFFFA
:100BC00032001000B014FFFF0A0011000700FFFF01
:100BD0000A0012008E001300000C29001500FFFF10
:100BE0000A0030000000310007013200000035002B
:100BF0000302360002043700000038000702390003
:100C000000003C0003023D000304600000A76100F7
:100C100001009000290007003301FFFF320015009A
:100C200030009A001000110020001000283412003B
:100C3000020013003810FFFF280012001200FFFF0F
:100C400028001000203413004530FFFF460030001C
:100C500000003100020432000703330004033400B3
:100C6000040035000104360007073700050338008B
:100C70001006390010060100000102000003030005
:100C80003010080008080A00080060000027610012
:100C9000010090003E019200000193000001A000BD
:100CA0000030A3001000070001000700210007002A
:100CB0002300070033000700330111001A0012005F
:100CC000213113006C001400494210000008FFFF9E
:100CD0000A0011001A01FFFF0A0011001A03FFFFAA
:100CE0000A0011001A07FFFF0A0011001A0FFFFF88
:100CF0000A0011003A0FFFFF1E0001002801020048
:100D000000010300301007001210080003030B005D
:100D100000110C0000000F00011815002000500009
:100D20000101510003065200080453000000540062
:100D30000506550006045600030357000303580038
:100D400010005900001007001200FFFF28000700E4
:100D500013000700170000000A0B02090C0D0E0813
:100D60000703040100000000000000000000000074
:100D70000000000000000000000000000000000073
:100D80000000121110000000000000000000000030
:100D90000000000000000000000000000102102020
:100DA00020080810204010204080020102010804A1
:100DB0000201010204081020408080402010080435
:100DC000020180040201804020100804020108048E
:100DD00002010102040810204080010204081020D2
:100DE000408000002200250028002B002E0031004A
:100DF000340002010000050108010B01050505058D
:100E0000070508080808020202020A0A0808040482
:100E100004040101010101010101030303030303B0
:100E20000303040707070C0C0C0C0C0C0C0C02023F
:100E3000020206060606060606060B0B0B0B0B0B3C
:100E40000B0B591BA02911241FBECFEFD1E2DEBF2F
:100E5000CDBF00E00CBF12E0A0E0B2E0E4E5FDE5AC
:100E600000E00BBF02C007900D92A63FB107D9F773
:100E700025E0A6EFB2E001C01D92AC36B207E1F763
:100E800017E0C2E2D7E000E006C021970109802FF9
:100E9000FE010E945B2CC132D10780E00807A9F750
:100EA0000E94D31C0C94982E0C940000FC01A08985
:100EB000B18982E08C93A485B5851C92A685B785FF
:100EC00080E18C93108EA489B58986E08C93A289E9
:100ED000B3898C9180618C93A289B3898C9188604D
:100EE0008C93A289B3898C9180688C930288F38952
:100EF000E02D80818F7D80830895282F30E0F901D7
:100F0000EA5AF24F9491F901E456F24F4491245079
:100F1000324FF9012491222309F432C0992311F1AF
:100F200091509231F8F4E92FF0E08827E556F84F18
:100F30008F4F0C945B2CC907CD07AD07C107C507C0
:100F4000B207D007D607DA07E007E407E807EE079D
:100F5000F207B207F607FC070008809180008F7740
:100F600080938000E22FF0E0EE0FFF1FEE51F24F72
:100F7000A591B4918FB7F894EC914E2B4C938FBF01
:100F80000895809180008F7DEBCF80918000877FD6
:100F9000E7CF84B58F7784BDE5CF84B58F7DFBCF58
:100FA0008091B0008F778093B000DCCF8091B0004B
:100FB0008F7DF9CF809190008F7780939000D2CF72
:100FC000809190008F7DF9CF80919000877FF5CF41
:100FD0008091A0008F778093A000C4CF8091A00063
:100FE0008F7DF9CF8091A000877FF5CF8091200180
:100FF0008F7780932001B6CF809120018F7DF9CF2C
:1010000080912001877FF5CF0895AF92BF92CF9254
:10101000DF92EF92FF920F931F93CF93DF936C01B8
:101020007B018B01040F151FEB015E01AE18BF0899
:10103000C017D10759F06991D601ED91FC9101904B
:10104000F081E02DC6011995892B79F7C501DF9153
:10105000CF911F910F91FF90EF90DF90CF90BF90B5
:10106000AF900895FC01538D448D252F30E0842FDF
:1010700090E0821B930B541710F0CF9608950197C0
:101080000895FC01918D828D981761F0A28DAE0FAD
:10109000BF2FB11D5D968C91928D9F5F9F73928F34
:1010A00090E008958FEF9FEF08952FB7F894809107
:1010B000000390910103A0910203B09103032FBF9D
:1010C00080930D0390930E03A0930F03B09310032E
:1010D00085E093E00E94410897FF26C02FB7F8945F
:1010E0008091000390910103A0910203B09103034A
:1010F0002FBF40910D0350910E0360910F0370912B
:101100001003841B950BA60BB70B4091090350915C
:101110000A0360910B0370910C0384179507A607CF
:10112000B707B0F28FEF9FEF0895FC01918D828D8C
:10113000981731F0828DE80FF11D858D90E00895AC
:101140008FEF9FEF0895FC01918D228D892F90E004
:10115000805C9F4F821B91098F739927089585E0CA
:1011600093E00E94A30821E0892B09F420E0822F5C
:10117000089582EA93E00E94A30821E0892B09F4F4
:1011800020E0822F0895FC01A48DA80FB92FB11D76
:10119000A35ABF4F2C91848D90E001968F739927AD
:1011A000848FA689B7892C93A089B1898C9183708B
:1011B00080648C93938D848D981306C00288F38984
:1011C000E02D80818F7D80830895EF92FF920F93B1
:1011D0001F93CF93DF93EC0181E0888F9B8D8C8DE3
:1011E00098131AC0E889F989808185FF15C09FB7D7
:1011F000F894EE89FF896083E889F989808183709A
:10120000806480839FBF81E090E0DF91CF911F9148
:101210000F91FF90EF900895F62E0B8D10E00F5F69
:101220001F4F0F731127E02E8C8D8E110CC00FB63F
:1012300007FCFACFE889F989808185FFF5CFCE01D7
:101240000E94C308F1CFEB8DEC0FFD2FF11DE35A87
:10125000FF4FF0829FB7F8940B8FEA89FB8980815A
:101260008062CFCFCF93DF93EC01888D8823B9F0D4
:10127000AA89BB89E889F9898C9185FD03C08081A1
:1012800086FD0DC00FB607FCF7CF8C9185FFF2CF1E
:10129000808185FFEDCFCE010E94C308E9CFDF91A9
:1012A000CF91089580E090E0892B29F00E94B90841
:1012B00081110E94000080E090E0892B29F00E94BB
:1012C000AF0881110E94000080E090E0892B49F076
:1012D00080E090E0892B29F00E94000081110E949B
:1012E000000080E090E0892B49F080E090E0892BBD
:1012F00029F00E94000081110C9400000895CF9302
:10130000DF9390E0FC01E456F24F24918450924F19
:10131000FC0184918823D1F090E0880F991FFC0193
:10132000EC56F94FA591B491FC01EE51F24FC591E5
:10133000D49161110EC09FB7F8948C91E22FE09583
:101340008E238C932881E223E8839FBFDF91CF9186
:1013500008958FB7F894EC91E22BEC938FBFF6CF02
:10136000863308F0865320917B00982F9870277F52
:10137000922B90937B008770806480937C00809197
:101380007A00806480937A0080917A0086FDFCCF99
:10139000809178009091790008953FB7F8948091FA
:1013A000F7029091F802A091F902B091FA0226B5E5
:1013B000A89B05C02F3F19F00196A11DB11D3FBF8D
:1013C000BA2FA92F982F8827BC01CD01620F711D5C
:1013D000811D911D42E0660F771F881F991F4A9556
:1013E000D1F708958F929F92AF92BF92CF92DF92E2
:1013F000EF92FF926B017C010E94CD094B015C01D1
:10140000C114D104E104F104B9F00E94CD096819B6
:1014100079098A099B09683E73408105910580F32B
:1014200021E0C21AD108E108F10888EE880E83E0B5
:10143000981EA11CB11CE4CFFF90EF90DF90CF90DD
:10144000BF90AF909F908F9008958B988A9820912D
:101450000201277820930201A5982EB1277C2EB98E
:1014600070910201292F30E0F901A5E0EE0FFF1F76
:10147000AA95E1F7E076E72BE09302017EB1F9014E
:10148000EE0FFF1FEE0FFF1FE073E72BEEB974B3F3
:10149000F901EE0FFF1FE072E72BE4BB7EB1F9010B
:1014A000F595E795F595E795E870E72BEEB970911E
:1014B0000201E3E035952795EA95E1F72871272B9E
:1014C000209302018998899A20910201277820931C
:1014D0000201A5982EB1277C2EB9709102019C01C2
:1014E000F5E0880F991FFA95E1F78076872B8093B6
:1014F00002017EB1C901880F991F880F991F80735F
:10150000872B8EB974B3C901880F991F8072872BFE
:1015100084BB7EB1C901959587959595879588700F
:10152000872B8EB980910201F3E035952795FA95C6
:10153000E1F72871282B209302018998899A8A9AC9
:10154000FA01615008F43EC08191909102019778B0
:1015500090930201A5989EB1977C9EB9409102019B
:1015600090E09C0155E0220F331F5A95E1F7207659
:10157000242B209302014EB19C01220F331F220F16
:10158000331F2073242B2EB944B39C01220F331F29
:101590002072242B24BB4EB19C013595279535959F
:1015A00027952870242B2EB92091020133E09595C0
:1015B00087953A95E1F78871822B8093020189988B
:1015C000899ABFCF8B9A0895DF92EF92FF920F9383
:1015D0001F93CF93DF93CDB7DEB768970FB6F8941C
:1015E000DEBF0FBECDBF7C018B01F7018491319628
:1015F000D490F2E0EF0EF11C8F3779F0DE011196F6
:1016000030E020E0AD012D1528F5F701E20FF31FC2
:10161000E491ED932F5F3F4FF6CF6D2D70E090E09A
:1016200080E00E94F209D12CED2DF0E032960E1BE5
:101630001F0B10161106CCF268960FB6F894DEBF99
:101640000FBECDBFDF91CF911F910F91FF90EF9013
:10165000DF900895ED0CF11C6D2D90E00E94250A9D
:10166000E3CF8B988A98E2E0F1E02081277820830D
:10167000A5982EB1277C2EB9A081292F30E0A90191
:10168000B5E0440F551FBA95E1F740764A2B4083E9
:10169000AEB1A901440F551F440F551F40734A2B8B
:1016A0004EB9A4B3A901440F551F40724A2B44BB45
:1016B000AEB1A901559547955595479548704A2B68
:1016C0004EB9408153E0359527955A95E1F7287139
:1016D000242B20838998899A208127782083A598B4
:1016E0002EB1277C2EB940819C01A5E0880F991F5F
:1016F000AA95E1F78076842B80834EB1C901880FCB
:10170000991F880F991F8073842B8EB944B3C90128
:10171000880F991F8072842B84BB4EB1C9019595A7
:101720008795959587958870842B8EB98081B3E0D5
:1017300035952795BA95E1F72871282B208389984C
:10174000899A8A9A808187788083A5988EB1877CD0
:101750008EB94081872F90E09C0155E0220F331F06
:101760005A95E1F72076242B20834EB19C01220F5D
:10177000331F220F331F2073242B2EB944B39C0137
:10178000220F331F2072242B24BB4EB19C013595B0
:101790002795359527952870242B2EB92081A3E015
:1017A00095958795AA95E1F78871822B8083899812
:1017B000899A808187788083A5988EB1877C8EB93D
:1017C0004081CB019B01B5E0220F331FBA95E1F7B1
:1017D0002076242B20834EB19B01220F331F220F32
:1017E000331F2073242B2EB944B39B01220F331FC8
:1017F0002072242B24BB4EB19C013595279535953D
:1018000027952870242B2EB92081A3E095958795E4
:10181000AA95E1F78871822B80838998899A8B9A9F
:10182000089581E080930403E1E0F1E0808188671E
:1018300080839D9A8DB188638DB9809A819A829AAE
:10184000839A849A8B9A889A899A8C9A62E370E038
:1018500080E090E00E94F2098C9864E670E080E0FD
:1018600090E00E94F2098C9A64E670E080E090E0DB
:101870000E94F20970E060E080EB90E00C94310B84
:101880000F931F93CF93DF93EC01162F80910403E6
:10189000811102C00E94110C8B988A9880910201DC
:1018A000877880930201A5988EB1877C8EB980914C
:1018B0000201809302018EB18EB984B384BB8EB1D4
:1018C0008EB980910201809302018998899A809152
:1018D0000201877880930201A5988EB1877C8EB92A
:1018E00020910201CE01A5E0880F991FAA95E1F78A
:1018F0008076822B809302012EB1CE01880F991F32
:10190000880F991F8073822B8EB924B3CE01880F64
:10191000991F8072822B84BB2EB1CE01959587953D
:10192000959587958870822B8EB98091020143E04E
:10193000D595C7954A95E1F7C871C82BC0930201A8
:101940008998899A8A9A8091010187788093010108
:101950009D988DB1877C8DB961E070E080E090E06A
:101960000E94F209889A8898889888986091000166
:10197000ECB1C2B32CB100910001889A889A889882
:1019800088988898409100015CB1A2B39CB1B09155
:101990000001889A115030F7889A8B9A8091010142
:1019A0008867809301019D9A8DB188638DB984E029
:1019B000289F900111242072332788E0089F80011E
:1019C0001124007C1127202BD0E0D595C795C0713C
:1019D000DD272C2BF0E0F595E795F595E795EC7074
:1019E000FF272E2B70E0E5E075956795EA95E1F706
:1019F00063707727262B64E0969FC00111248072C4
:101A000098E0B99FB0011124607C862BA695A07147
:101A10008A2B569556955C70852B50E0F5E05595D0
:101A20004795FA95E1F74370842B922FDF91CF9180
:101A30001F910F910895FF920F931F93CF93DF9300
:101A40008C0160E00E94400CEC0161E0C8010E9442
:101A5000400CF82E62E0C8010E94400CAE0170E01C
:101A600060E0742F66275527442700E030E020E02F
:101A7000402B5F29622B732B292F30E0C901B0E086
:101A8000A0E08A019B01082B192B2A2B3B2BC901B3
:101A9000B801DF91CF911F910F91FF9008950F939F
:101AA0001F93CF93DF938C0160E00E94400CEC0108
:101AB00061E0C8010E94400C8C01BE0190E080E012
:101AC000CB017727662730E020E0602B712B822B3B
:101AD000932BDF91CF911F910F9108950F931F9337
:101AE000CF93DF93EC018B01FE0185919491FE0170
:101AF00032962496659174918F3F980771F490E027
:101B000080E00E94F209045011091016110664F3D6
:101B1000DF91CF911F910F9108950E94310BF3CF68
:101B2000FC01262F348D858D82958170982F962704
:101B3000692F70E071A360A330FF0CC0821307C04F
:101B400080E290E050E040E060E00C94250A81E201
:101B500090E0F8CF868D978D873222E99207C0F406
:101B6000853222E9920758F4803224E59207B9F0D1
:101B7000833927E7920799F084359140A1F4660FE5
:101B8000771F660F771F636187E090E00C94310B3D
:101B9000863223E9920719F08930954B21F462606F
:101BA00081E094E0F3CF81E690E0F0CF8F929F92B6
:101BB000AF92BF92CF92DF92EF92FF920F931F935B
:101BC000CF93DF9300D01F92CDB7DEB77C014B01DE
:101BD0005A016901FC01868D978D8732F3E99F07D1
:101BE00009F040C0F7018589823099F5F0E2AF0E27
:101BF000B11C005E1F4FF701848D80FF4AC084A591
:101C000099828A82DB82CC82AE014F5F5F4F64E0B3
:101C100090E00E94250AF70180A9B982AA821B835D
:101C20000C83AE014F5F5F4F64E090E00E94250A95
:101C30000F900F900F900F90DF91CF911F910F9108
:101C4000FF90EF90DF90CF90BF90AF909F908F90DC
:101C50000895833081F620E2820E911C80E2C80E46
:101C6000D11CC9CF8632954131F6F701858980FFB5
:101C7000C2CFC801841B950B19F40F5F1F4FBBCF58
:101C80006217730709F0B7CF6B01C80ED91E8A011E
:101C9000B2CFB40186A197A10E94310BB501F70123
:101CA00080A591A50E94310BC814D90421F40A150E
:101CB0001B0509F4BDCFF701848D85FF08C0858918
:101CC00080FF1EC0102F0027A02AB12A8501B40171
:101CD000F70184A595A50E94310BB501F70180A9F4
:101CE00091A90E94310BB601F70186A597A50E9424
:101CF000310BB801F70182A993A90E94310B98CF4B
:101D0000DC2CCC248C289D286401E1CFAF92BF92BB
:101D1000CF92DF92EF92FF920F931F93CF93DF93B7
:101D2000EC018091FB02882349F0C701880F991FBD
:101D30008E739927E1ECEE22E82AF92A37FF05C0D5
:101D4000620F731F319521953109260F371F77FFD9
:101D500002C070E060E088859985281739070CF487
:101D6000C9016C01C61AD70A17FF05C0400F511FE1
:101D7000119501951109040F151F57FF02C050E07E
:101D800040E02A853B85021713070CF4980159019E
:101D9000A41AB50A8901015011099C012150310989
:101DA000CE010E94D60D8B988A985AA54BA580919A
:101DB0000201877880930201A5988EB1877C8EB945
:101DC00060910201842F90E09C01F5E0220F331F07
:101DD000FA95E1F72076262B209302016EB19C0143
:101DE000220F331F220F331F2073262B2EB964B30B
:101DF0009C01220F331F2072262B24BB6EB19C0145
:101E000035952795359527952870262B2EB9209145
:101E1000020103E0959587950A95E1F78871822B79
:101E2000809302018998899A809102018778809332
:101E30000201A5988EB1877C8EB960910201852F31
:101E4000942F9C0145E0220F331F4A95E1F720763D
:101E5000262B209302014EB19C01220F331F220F2B
:101E6000331F2073242B2EB944B39C01220F331F40
:101E70002072242B24BB4EB19C01359527953595B6
:101E800027952870242B2EB920910201E3E0959527
:101E90008795EA95E1F78871822B809302018998F2
:101EA000899A8A9ACA14DB042CF09A2D8B2D56013C
:101EB000C92ED82E8F2D99279C0145E0220F331F64
:101EC0004A95E1F72076AC01440F551F440F551F8A
:101ED000342F3073AC01440F551F4072BC0175950F
:101EE000679575956795562F5870F3E0959587958A
:101EF000FA95E1F78871B701A5E0660F771FAA95FB
:101F0000E1F7962F9076B701660F771F660F771F60
:101F10006073F701EE0FFF1F7E2F7072D701B5952A
:101F2000A795B595A795A870E3E0F594E794EA9591
:101F3000E1F7EE2DE871EE2E1C141D040CF043C0E9
:101F4000F501B0910201B778B0930201A598BEB136
:101F5000B77CBEB9B0910201B22BB0930201BEB101
:101F6000B32BBEB9B4B3B42BB4BBBEB1B52BBEB9A1
:101F7000B0910201B82BB09302018998899AB0916F
:101F80000201B778B0930201A598BEB1B77CBEB983
:101F9000B0910201B92BB0930201BEB1B62BBEB90C
:101FA000B4B3B72BB4BBBEB1BA2BBEB9B09102016A
:101FB000BE29B09302018998899A319711F6E1E020
:101FC000CE1AD108B9CF8B9A8C8D80FF08C08E8D28
:101FD0009F8D8632954191F48D8980FF0FC00A85CF
:101FE0001B8501501109288539852150310950E0A0
:101FF00040E070E060E0CE010E94D60DDF91CF910D
:102000001F910F91FF90EF90DF90CF90BF90AF9016
:102010000895EF92FF920F931F93CF93DF937C016C
:10202000E90177FD2AC057FD28C0FC018085918514
:102030006817790714F58285938548175907ECF4DA
:102040008091FB02882341F0C901880F991F8E738C
:102050009927C17CC82BD92B8A019B01C7010E94FB
:10206000D60DBE01F70182A593A5DF91CF911F91F7
:102070000F91FF90EF900C94310BDF91CF911F9156
:102080000F91FF90EF900895EF92FF920F931F939F
:10209000CF93DF9300D000D000D01F92CDB7DEB732
:1020A0007C01862F8370F701858B962F917060FFDE
:1020B000F1C026813781F70131872087992309F400
:1020C000ECC024813581F70133872287823009F4FF
:1020D000E9C0833009F4E8C0813009F4E1C088E444
:1020E0008A87F701248D358D30FF03C08A8580589B
:1020F0008A8731FF04C08A8590E489278A8733FF65
:1021000004C08A8598E089278A87F701868D978D94
:1021100020FFFAC08431F8E69F0709F0C7C09A850E
:10212000892F88728A871F82892F85958074282F2E
:102130002260892F90E09595879580729927822B50
:1021400088878BE38987AE01495F5F4F63E086EB49
:1021500090E00E94250A2AE230E0F70137A326A387
:102160008BE290E091A780A74CE250E053A742A7F2
:1021700035A724A737A726A791AB80AB93AB82AB3B
:10218000AE01465F5F4F61E086E390E00E94250A62
:102190008A8590E0F70193A382A3F701858980FFE8
:1021A0001CC0848D958D92FD18C086A197A120A595
:1021B00031A537A326A391A780A784A595A520A91B
:1021C00031A935A724A791AB80AB86A597A522A9F5
:1021D00033A937A726A793AB82ABF70102851385F6
:1021E00001501109208531852150310950E040E02E
:1021F00070E060E0C7010E94D60DF701668177812B
:10220000868D978D10E000E020E08732F3E99F078C
:1022100069F4F7012589225010E000E0223010F423
:1022200000E210E020E230E0201B310BF701448D8A
:1022300040FF24C119820A837B836C831D822E8315
:10224000AE014F5F5F4F66E083E390E00E94250A96
:1022500019820A83AE014F5F5F4F62E087E390E02F
:102260000E94250AF701848D80FF07C050E040E0FE
:1022700060E083E190E00E94250A2A960FB6F89468
:10228000DEBF0FBECDBFDF91CF911F910F91FF90A9
:10229000EF900895248135810ECF2681378113CFA9
:1022A00088E21ECF88E91CCF88EF1ACF833629E158
:1022B000920749F0813844E9940729F08131E5E13A
:1022C0009E0709F048CF2A8527FF02C021602A8790
:1022D0002A8526FF02C022602A878336F9E19F07FC
:1022E00021F48A858F738A8736CF813824E9920753
:1022F00019F48A858F72F7CF8131954109F02BCF80
:102300008A858F7E806CEFCF6A85262F062E000C83
:10231000330B8339F7E79F0761F008F042C084353B
:10232000E1E09E0709F46AC08032F4E59F0709F0F6
:1023300041C040E052E0F70157A346A341E052E01C
:1023400051A740A742E052E053A742A740E152E024
:1023500055A744A741E152E057A746A742E152E002
:1023600051AB40AB43E152E053AB42AB2227307854
:102370008632F3E99F0729F060E07AE680329445DF
:1023800011F460E075E3622B732B80E094E00E940F
:10239000310B6A85F4E06F9FB001112466277170DC
:1023A00055C0863243E9940721F28930E5EB9E0758
:1023B00009F4BFCF80E290E0F70197A386A381E202
:1023C00090E091A780A782E290E093A782A780E5A2
:1023D00090E095A784A781E590E097A786A782E57E
:1023E00090E091AB80AB83E590E093AB82ABB90119
:1023F00066277078776280E690E0C9CF87E390E047
:10240000F70195A784A786E390E097A786A789E3BD
:1024100090E091AB80AB88E390E093AB82AB80E23D
:1024200090E097A386A381E290E091A780A782E243
:1024300090E093A782A7F4E06F9FB0011124662774
:102440007170222732702862622B732B81E090E03A
:102450000E94310B8A85682F70E075956795759598
:1024600067956870772783FD70616063F70173A3D8
:1024700062A383E090E00E94310B8FCE8339F7E7AF
:102480009F0789F1F8F4803244E5940761F18338BD
:10249000E7E79E07A1F184359140E9F4600F711FD1
:1024A0006150710981E390E00E94310BB80182E331
:1024B00090E00E94310B70E060E083E390E00E94C6
:1024C000310BDBCE863223E9920769F048F485525E
:1024D0009249029718F3F70160A171A1626012C0DE
:1024E0008930954BC1F7F70160A171A1626081E06D
:1024F00094E00E94310BB80184E094E0E0CFF70152
:1025000060A171A181E690E00E94310BB8018AE6DA
:1025100090E0D5CF0895FC016370658B848195812F
:1025200026813781613039F0633029F091878087C7
:10253000338722870895318720879387828708957C
:102540002F923F924F925F926F927F928F929F92C3
:10255000AF92BF92CF92DF92EF92FF920F931F93B1
:10256000CF93DF93CDB7DEB769970FB6F894DEBF90
:102570000FBECDBF998F888F5B011A01D22E1F83AA
:102580000E833701C982DC0158962D913C915997F1
:102590002115310509F004C118968D919C91199768
:1025A000681779070CF0C0C11A968D919C911B9702
:1025B000481759070CF0B8C18C2C912CFB0126E070
:1025C000C29EE00DF11D1124F987E8871E161F0633
:1025D0000CF0AAC1A40193E0440F551F9A95E1F7AE
:1025E0005D874C87CA01820D931D181619060CF0E1
:1025F0009BC157968C91811104C05FEA5D1508F468
:10260000D394A88DB98DED91FC9111970284F38537
:10261000E02DCD011995F5013596F98BE88BBB823C
:10262000AA82250184E991E08A199B099C0145E071
:10263000D49E200D311D11243B8B2A8BEA89FB8906
:10264000E40DF51D24913D822C82D12CC12C622FEA
:1026500070E07F876E87E88DF98DA081B18120FFC2
:102660007CC0F981F13009F069C01C96ED91FC91B4
:102670002E813F81A1014C0D5D1DB201888D998D88
:102680001995EE85FF85F595E7952E2F4FEFC41A26
:10269000D40A6C817D81680D791D7D836C8378E01F
:1026A000C716D104A1F68FEF481A580AAA81BB8138
:1026B000A80DB91DBB83AA83E889F989E415F5053E
:1026C00009F0BCCF2E813F8126153705A9F0A88DD2
:1026D000B98DED91FC91B981B13009F051C0B501CE
:1026E0006B5F7F4F0088F189E02D830128E030E0A7
:1026F000A101888D998D1995A88DB98DED91FC91C9
:1027000011970688F789E02DCD0169960FB6F894E8
:10271000DEBF0FBECDBFDF91CF911F910F91FF9014
:10272000EF90DF90CF90BF90AF909F908F907F9071
:102730006F905F904F903F902F9019941E96ED915F
:10274000FC91EE80FF80840194014C815D816A815F
:102750007B81888D998D199594CF2E813F81261587
:10276000370509F48ECF3981313029F41C96ED916B
:10277000FC9193017FCF1E96ED91FC917301E3CF05
:1027800068857985681979090684F785E02D7301D4
:102790000C851D859401A101888D998D1995ACCF6B
:1027A000F90134969491329745915491D91AB7E032
:1027B000DB9E400D511D1124F90125913491398B77
:1027C000288BFA0145905490FA0132966490319624
:1027D000C49032961491319604913981323008F4C4
:1027E0008AC0E12E012E000CFF08402F002E000CA5
:1027F000550B59874887A88DB98DED91FC9111979C
:102800000284F385E02DCD011995B9818B2E912C91
:10281000E89CC001E99C900DF89C900D1124FC01EE
:10282000EA0DFB1DFF87EE871C82D12C712C9B8645
:102830008A869101200F311D07FD3A953D8B2C8B27
:10284000A501410F511D17FD5A955F8B4E8B7C14CE
:1028500008F052CF872D90E048855985480F591FC1
:102860006A857B85469F9001479F300D569F300DAE
:102870001124D901A20DB31DBD87AC87EE85FF855C
:10288000FB83EA83B12CA12C2C893D89280F391FA9
:102890003B8B2A8B8C818A0DA61408F040C0877070
:1028A00041F4C2010196E889F989E40DF51DD4903F
:1028B0002C01D7FE15C0A88DB98DED91FC91B98181
:1028C000B130F1F40484F585E02D2E813F814A89F1
:1028D0005B896E897F896A0D7B1D888D998D19951D
:1028E000DD0CEFEFAE1ABE0A2A813B81280D391D9F
:1028F0003B832A83CFCF19861886F12CE12C7BCF1E
:102900000684F785E02DEE80FF80840194014C85DC
:102910005D856A817B81888D998D1995E1CF3C8198
:10292000360D3C83739493CF69960FB6F894DEBF4F
:102930000FBECDBFDF91CF911F910F91FF90EF9010
:10294000DF90CF90BF90AF909F908F907F906F90CF
:102950005F904F903F902F900895AF92BF92CF928B
:10296000EF92FF920F931F93CF93DF93EC01262FEB
:10297000888D998D009709F04FC06A30C9F41D8683
:102980001C868C8998E0899F900111248E859F85F3
:10299000820F931F9F878E8781E090E0DF91CF9118
:1029A0001F910F91FF90EF90CF90BF90AF9008953F
:1029B0006D3091F3CC888E898823C1F08C859D85FC
:1029C000E6E0CE9E800D911D11244885598548175B
:1029D000590764F44E855F851D861C86F8E0CF9EFE
:1029E000C0011124840F951F9F878E87EA88FB887A
:1029F000088919894E855F856C857D85CE010E9489
:102A0000A0122C898C859D8536E0239F800D911D19
:102A100011249D878C87C0CF6A3069F41D861C867F
:102A2000FC013696E4912C898E859F85E29F800D6E
:102A3000911D1124AFCF6D3009F4AECFFC01349657
:102A40003491631708F4A8CF3196E491E61708F49F
:102A5000A3CFFC01329645915491E62FE31BFF0B67
:102A600037E03E9F50013F9FB00C1124A40EB51ECD
:102A7000F501329634913196E4913323A1F1EE239E
:102A800091F1CC88F5013596E4914E89442301F10A
:102A90000E2E000CFF0BE30FF11DCE9EA001CF9E6A
:102AA000500D11246C857D85460F571F68857985EB
:102AB000641775076CF44E855F851D861C86069627
:102AC000FC018491C89E400D511D11245F874E87E3
:102AD000EA88FB88088919894E855F856C857D8524
:102AE000CE010E94A012F5013496E4912C898C85C8
:102AF0009D85E29F800D911D11248BCF6F927F9257
:102B00008F929F92AF92BF92CF92DF92EF92FF92FD
:102B10000F931F93CF93DF93EC016B015A0139019F
:102B20004801E881F9810284F385E02D1995E88157
:102B3000F9810288F389E02D87019301A501B6018F
:102B4000CE011995A501480D591D41505109E88143
:102B5000F9810288F389E02D9301B601CE01199520
:102B6000E881F9810088F189E02D9401A501B60181
:102B7000CE011995C60CD71CB60161507109E881C8
:102B8000F9810088F189E02D9401A501CE01199504
:102B9000E881F9810688F789E02DCE01DF91CF9198
:102BA0001F910F91FF90EF90DF90CF90BF90AF906B
:102BB0009F908F907F906F9019946F927F928F92D9
:102BC0009F92AF92BF92CF92DF92EF92FF920F93BC
:102BD0001F93CF93DF935C01EB016A014901380138
:102BE0008701DC01ED91FC916217730719F56416FA
:102BF00075062CF0962D872D3A01C92ED82E9601F8
:102C0000261937092F5F3F4F048CF58DE02DA30166
:102C1000BE01C5011995DF91CF911F910F91FF90D2
:102C2000EF90DF90CF90BF90AF909F908F907F906C
:102C30006F9008954615570591F42617370724F02D
:102C4000892D4B01C22FD82F9E01281939092F5FDA
:102C50003F4F068CF78DE02DA601B401DACF028438
:102C6000F385E02D1995D501ED91FC910488F58946
:102C7000E02D83019401A601BE01C5011995D5017E
:102C8000ED91FC910688F789E02DC501DF91CF9188
:102C90001F910F91FF90EF90DF90CF90BF90AF907A
:102CA0009F908F907F906F901994EF92FF920F9367
:102CB0001F93DC011A960D911C911B9718962D916C
:102CC0003C911997ED91FC9100A0F1A1E02D7B01C1
:102CD00050E040E070E060E019951F910F91FF9087
:102CE000EF9008954F925F926F927F928F929F9292
:102CF000AF92BF92CF92DF92EF92FF920F931F930A
:102D0000CF93DF936C012B015A0139014801DC019B
:102D1000ED91FC910284F385E02D1995E201640C9C
:102D2000751CD601ED91FC91C615D7055CF40088A1
:102D3000F189E02D87019401A501BE01C601199515
:102D40002196EFCF0688F789E02DC601DF91CF915C
:102D50001F910F91FF90EF90DF90CF90BF90AF90B9
:102D60009F908F907F906F905F904F9019948F926B
:102D70009F92AF92BF92CF92DF92EF92FF920F930A
:102D80001F93CF93DF93EC015B014A016901E88156
:102D9000F9810284F385E02D199595012C0D3D1DD7
:102DA00021503109E881F9810488F589E02D780105
:102DB0008401A401B501CE011995E881F981068845
:102DC000F789E02DCE01DF91CF911F910F91FF90F8
:102DD000EF90DF90CF90BF90AF909F908F9019941D
:102DE0008F929F92AF92BF92CF92DF92EF92FF921B
:102DF0000F931F93CF93DF93EC015B014A016901AD
:102E00007801E881F9810284F385E02D1995C80CD9
:102E1000D91C860101501109E881F9810488F589DE
:102E2000E02D9501A401B501CE011995E881F98144
:102E30000688F789E02DCE01DF91CF911F910F9188
:102E4000FF90EF90DF90CF90BF90AF909F908F90CA
:102E500019940895EF92FF920F931F93DC01ED9167
:102E6000FC9100A0F1A1E02D19951F910F91FF9009
:102E7000EF9008950F931F93DC01ED91FC91068C68
:102E8000F78DE02D19951F910F9108950F931F93C2
:102E9000DC01ED91FC91048CF58DE02D19951F91CD
:102EA0000F910895DC01ED91FC910084F185E02DF6
:102EB00019942F923F924F925F926F927F928F92CE
:102EC0009F92AF92BF92CF92DF92EF92FF920F93B9
:102ED0001F93CF93DF9300D000D0CDB7DEB73C0176
:102EE0006A013E832D83FC82EB825801A41AB50A45
:102EF000B7FE03C0B194A194B1088D809E80861A5C
:102F0000970A97FE03C09194819491088A149B04B8
:102F10005CF0902F812F0D811E819D838E839C2DCF
:102F20008D2D6B01692F782F0C151D055CF09D818F
:102F30008E817E836D83692F782F902F812F86015C
:102F4000C92ED82E1601201A310A2B012D813E815F
:102F5000421A530A57FE03C051944194510871011B
:102F600037FE03C03FEFE31AF30AF594E7948D812F
:102F70009E81861797075CF5A1E0B0E0BA83A9832C
:102F8000C016D1064CF1D301ED91FC910484F58576
:102F9000E02D2B813C81A8016D817E818A149B04E8
:102FA0001CF04D815E81B801C3011995E418F50844
:102FB000F7FE0AC02D813E8189819A81280F391F31
:102FC0003E832D83E20CF31C0F5F1F4FD9CF2FEFF1
:102FD0003FEF3A832983D4CF26960FB6F894DEBF0D
:102FE0000FBECDBFDF91CF911F910F91FF90EF905A
:102FF000DF90CF90BF90AF909F908F907F906F9019
:103000005F904F903F902F900895EF92FF920F9313
:103010001F93DC011A960D911C911B9718962D9108
:103020003C911997ED91FC9100A0F1A1E02D7B015D
:1030300050E040E070E060E019951F910F91FF9023
:10304000EF900895EF92FF920F931F93DC01ED91A3
:10305000FC9100A0F1A1E02D780101E010E01995AC
:103060001F910F91FF90EF900895EF92FF920F93B1
:103070001F93DC01ED91FC9100A0F1A1E02D7801FE
:10308000890121E030E019951F910F91FF90EF9099
:10309000089590E080E00895FC0120813181EFE304
:1030A000F4E048E750E05587448777876687FC015E
:1030B00044815581B9018FE394E00C940508FB012C
:1030C00001900020E9F73197AF01461B570BDC0157
:1030D000ED91FC910280F381E02D1994EFE3F4E08F
:1030E0007587648757874687BC01CF010C945F18AA
:1030F0008F929F92AF92BF92CF92DF92EF92FF9208
:103100000F931F93CF93DF93CDB7DEB7A1970FB681
:10311000F894DEBF0FBECDBF6C01990FEE08FF081B
:10312000F7FE4BC06DE282EA93E00E94E5088C0155
:1031300022273327A9012C193D094E095F0919A23D
:10314000CE0181967C019AE0892E912CA12CB12C84
:10315000CA01B901A50194010E94152B605DF70118
:1031600062937F01211531054105510589F790E0F2
:1031700080E0309729F0BF0182EA93E00E945F1857
:10318000080F191F67E472E082EA93E00E945F185B
:10319000800F911FA1960FB6F894DEBF0FBECDBF72
:1031A000DF91CF911F910F91FF90EF90DF90CF9023
:1031B000BF90AF909F908F900895A701960119A29C
:1031C0008E010F5D1F4F8AE0C82ED12CE12CF12C0F
:1031D000CA01B901A70196010E94152B605DF80193
:1031E00062938F01211531054105510589F730970B
:1031F00039F0BF0182EA93E00E945F188C01C2CFD0
:1032000010E000E0BFCFCF93DF93FC0144815581F4
:103210006081718182EA93E00E940508EC0167E415
:1032200072E082EA93E00E945F188C0F9D1FDF918D
:10323000CF910895CF93DF93209166053091670574
:10324000232B89F0FC01C0916205D0916305608158
:103250007181CE010E947E2E009729F08C1B9D0B60
:10326000DF91CF9108958FEF9FEFFACFCF93DF9348
:10327000EC0188819981009711F00E94FF2C19823E
:1032800018821D821C821B821A82DF91CF910895C1
:10329000FC0180819181009711F00C94FF2C08951E
:1032A0000E94692E0F931F93CF93DF93EC018881C7
:1032B0009981009759F02A813B812617370730F012
:1032C00081E0DF91CF911F910F9108958B016F5F86
:1032D0007F4F0E94882D009759F0998388831B8324
:1032E0000A832C813D81232B59F7FC011082E8CF02
:1032F00080E0E7CFEF92FF920F931F93CF93DF937E
:103300008C017B01FB0101900020E9F73197E61B5E
:10331000F70BD1F0DC011496CD91DC91CE0FDF1FBD
:10332000BE010E9452198823B9F0F8012081318131
:1033300084819581B701820F931F0E94772ED80157
:103340001596DC93CE931497C801DF91CF911F910E
:103350000F91FF90EF900895C8010E943619F4CFA5
:10336000EF92FF920F931F93CF93DF93EC017B01BA
:103370008A01BA010E94521981110BC0CE010E942C
:103380003619CE01DF91CF911F910F91FF90EF90F1
:1033900008951D830C83B701888199810E94772E3F
:1033A000F0CFFB01DC0111961C921E9213961C9229
:1033B0001E92129715961C921E92149786179707C5
:1033C00049F0608171816115710521F04481558159
:1033D0000C94B0190895FC0111821082138212829C
:1033E00015821482FB0101900020E9F73197AF01AB
:1033F000461B570B0C94B019CF92DF92EF92FF92BD
:103400000F931F93CF93DF937C016B018A014617C3
:10341000570720F48D2D6A01062F182F69E472E0FA
:10342000C7010E94EB19C0916605D0916705CC16C3
:10343000DD0638F50C171D0708F4E801E091620578
:10344000F0916305EC0FFD1F108110826091620501
:10345000709163056C0D7D1D61157105E1F0FB0137
:1034600001900020E9F73197AF01461B570BC701C8
:103470000E94B0198091620590916305C80FD91F11
:103480001883C701DF91CF911F910F91FF90EF90AB
:10349000DF90CF900895C7010E943619EBCF1F929D
:1034A0000F920FB60F9211240BB60F922F933F93EA
:1034B0004F935F936F937F938F939F93AF93BF933C
:1034C000EF93FF9385E093E00E94C308FF91EF9193
:1034D000BF91AF919F918F917F916F915F914F912C
:1034E0003F912F910F900BBE0F900FBE0F901F902A
:1034F00018951F920F920FB60F9211240BB60F92D0
:103500002F938F939F93EF93FF93E0911503F09187
:1035100016038081E0911B03F0911C0382FD1DC006
:10352000908180911E038F5F8F7320911F038217FC
:1035300041F0E0911E03F0E0EB5FFC4F958F80932C
:103540001E03FF91EF919F918F912F910F900BBED2
:103550000F900FBE0F901F9018958081F2CF1F9291
:103560000F920FB60F9211240BB60F922F933F9329
:103570004F935F936F937F938F939F93AF93BF937B
:10358000EF93FF9382EA93E00E94C308FF91EF91CB
:10359000BF91AF919F918F917F916F915F914F916B
:1035A0003F912F910F900BBE0F900FBE0F901F9069
:1035B00018951F920F920FB60F9211240BB60F920F
:1035C0002F938F939F93EF93FF93E091B203F0912A
:1035D000B3038081E091B803F091B90382FD1DC06F
:1035E00090818091BB038F5F8F732091BC03821702
:1035F00041F0E091BB03F0E0EE55FC4F958F8093D6
:10360000BB03FF91EF919F918F912F910F900BBE74
:103610000F900FBE0F901F9018958081F2CF1F92D0
:103620000F920FB60F9211242F933F938F939F9376
:10363000AF93BF938091000390910103A091020387
:10364000B09103033091F60223E0230F2D3758F594
:103650000196A11DB11D2093F60280930003909363
:103660000103A0930203B09303038091F7029091AA
:10367000F802A091F902B091FA020196A11DB11DC4
:103680008093F7029093F802A093F902B093FA02A4
:10369000BF91AF919F918F913F912F910F900FBE4E
:1036A0000F901F90189526E8230F0296A11DB11DBB
:1036B000D2CFCF93DF93E5E0F3E01382128248EE9E
:1036C00053E060E070E044835583668377838DE048
:1036D00092E0918380832DEC30E0358724872CECB9
:1036E00030E03787268728EC30E0318B208B29ECBF
:1036F00030E0338B228B2AEC30E0358B248B2EECA0
:1037000030E0378B268B118E128E138E148EE2EAE8
:10371000F3E0138212824483558366837783918317
:10372000808385EC90E09587848784EC90E0978790
:10373000868780EC90E0918B808B81EC90E0938B7E
:10374000828B82EC90E0958B848B86EC90E0978B5B
:10375000868B118E128E138E148E69E472E082E6CF
:1037600095E00E94EB1969E472E08CE595E00E9417
:10377000EB1969E472E086E595E00E94EB1969E4D3
:1037800072E080E595E00E94EB1969E472E08AE45A
:1037900095E00E94EB1969E472E084E495E00E94F0
:1037A000EB1969E472E08EE395E00E94EB1969E49D
:1037B00072E088E395E00E94EB1969E472E082E32D
:1037C00095E00E94EB1969E472E08CE295E00E94BA
:1037D000EB1969E472E086E295E00E94EB1969E476
:1037E00072E080E295E00E94EB1969E472E08AE100
:1037F00095E00E94EB1969E472E084E195E00E9493
:10380000EB1969E472E08EE095E00E94EB1969E43F
:1038100072E088E095E00E94EB1969E472E082E0D2
:1038200095E00E94EB1969E472E08CEF94E00E944D
:10383000EB19E8ECF4E01382128240EF50E055837C
:10384000448320E431E037832683518740873387E0
:103850002287158A158614861786168661E0648B82
:103860008FEF9FEF938B828B918B808B668B178A68
:10387000118E108EAFE1B2E0B183A083A4EBB4E06F
:1038800079E312967C93129778E314967C931497BD
:1038900079E013967C93139778E015967C931597AF
:1038A000ECE2F1E01796FC93EE931697E4E0FEE06D
:1038B000E491F0E0EE0FFF1FEE51F24FC591D4916D
:1038C0001996DC93CE931897E5E3FEE0E491F0E0DF
:1038D000EE0FFF1FEE51F24FC591D4911B96DC9372
:1038E000CE931A97E4E3FEE0E491F0E0EE0FFF1FC1
:1038F000EE51F24FC591D4911D96DC93CE931C9757
:10390000E5E0FEE0E491F0E0EE0FFF1FEE51F24F34
:10391000C591D4911F96DC93CE931E97E4EAFDE007
:10392000E4915096EC935097E5EDFDE0E4915296CA
:10393000EC935297E4EDFDE0E4915196EC935197AE
:10394000E5EAFDE0E4915396EC935397EAE0F0E06A
:10395000ED93FC93109298041092970410927B04BC
:1039600010927A04EFE3F4E01382128255834483C9
:10397000378326835187408733872287158A1586A8
:10398000148617861686648B938B828B918B808B23
:10399000668B178A118E108E8FE192E0918380835F
:1039A000DF91CF910895CF93DF93CDB7DEB7ED9739
:1039B0000FB6F894DEBF0FBECDBF789484B5826099
:1039C00084BD84B5816084BD85B5826085BD85B5C3
:1039D000816085BD80916E00816080936E00109241
:1039E00081008091810082608093810080918100BC
:1039F000816080938100809180008160809380004D
:103A00008091B10084608093B1008091B0008160AA
:103A10008093B000809191008260809391008091AA
:103A200091008160809391008091900081608093EB
:103A300090008091A10082608093A1008091A100FC
:103A400081608093A1008091A00081608093A0009C
:103A50008091210182608093210180912101816008
:103A600080932101809120018160809320018091C9
:103A70007A00846080937A0080917A0082608093DB
:103A80007A0080917A00816080937A0080917A0038
:103A9000806880937A001092C10082EA93E00E94CD
:103AA000560785E093E00E9456070E94110C60E0E3
:103AB00090E080E00E94400C8C01883024E5920761
:103AC00011F40C9446298032944511F40C94042985
:103AD0000938194811F40C94022960E087E690E057
:103AE0000E94400C8734974411F40C94102981EA09
:103AF00090E00E944F0D6130E1E67E0711F40C94D6
:103B000013296F3F7F4F11F40C94A2288FEB90E0A4
:103B10000E941B0D4B01673523E8720711F40C94CA
:103B20002429613834E9730709F49FC76131A5E19D
:103B30007A0709F4A7C76032E5E17E0711F40C9417
:103B400094286632F5E17F0711F40C94A2286138BD
:103B500025E1720709F467C76115744111F40C94EB
:103B6000DE2884ED90E00E944F0D6031734511F422
:103B70000C94BA2887ED90E00E944F0D6133704895
:103B800011F40C9492298FEE90E00E941B0D673285
:103B9000734911F40C9452298EEF90E00E944F0D5E
:103BA000672F782F892F99276335704211F40C9471
:103BB000762984E090E00E944F0D8B019B018111DA
:103BC00054C0011580E8180709F04FC08091060223
:103BD00090910702A091080289839A83AB83AE017A
:103BE0004F5F5F4F63E089EB90E00E94250A60E041
:103BF00080ED90E00E94400C893999F0803909F0FD
:103C000045C00E94110C10925A041092590480E988
:103C100090E990935E0480935D0483E194E10C94B9
:103C200030290E94110C10925A041092590489E90B
:103C300090E090935E0480935D0483E194E190931F
:103C40005C0480935B0480EE91E090934604809343
:103C5000450480E491E090934404809343047DE123
:103C6000E72EF12C0EEE17E02EC7263295E139072C
:103C700011F40C94A2282235A5E83A0711F40C940B
:103C8000162921313C4A11F40C94862983ED90E0E9
:103C90000E944F0D8B01872F7359723008F445C075
:103CA000883909F442C0873709F43FC08631E9F109
:103CB000033D110589F500E910E90E94110C1092ED
:103CC0005A041092590410935E0400935D04073562
:103CD00033E8130711F40C942E2908F0D4C00335EF
:103CE00090E2190711F40C94822908F06BC001319D
:103CF000E5E11E0709F4D0C6D0F50939110509F42C
:103D00009CCF10F580E091E10130110539F110925E
:103D100044041092430455C1033D134D61F260E029
:103D200090E080E00E94400C8C010115110549F0E3
:103D3000033D110509F4BFCF033D100709F0BDCFC6
:103D4000BACF01E413E9B9CF043521E0120709F431
:103D50002CC105301541D9F684E090E190935C04C4
:103D600080935B0468ED70E086EB9AE028C1063230
:103D700085E1180711F40C94AE2878F4003215414F
:103D800031F683E194E090935C0480935B0486E0D9
:103D9000E82EF12C01E718E096C60138E5E11E0790
:103DA00009F44BC683E195E00230164109F0AFCF2C
:103DB00090935C0480935B0453E0E52EF12C0DECB2
:103DC00017E081C6043128E6120711F40C94EA28A2
:103DD00050F5003183E5180711F40C94C62878F4E7
:103DE0000533154409F093CF80E090E190935C0493
:103DF00080935B046CE970E08EE19CE0E0C00830E9
:103E0000E4E51E0709F4A8CF82E091E109301846E5
:103E100009F07DCF90935C0480935B046CEC70E0C0
:103E20008AEE99E0CCC0033927E7120709F4FBC0FA
:103E3000A8F4033887E7180709F4C6C009381747FC
:103E400009F065CF83E194E090935C0480935B0478
:103E5000A1E4EA2EF12C0FE118E035C60639A7E7F8
:103E60001A0709F4C5C00133104809F050CF83E1A7
:103E700094E190935C0480935B04F2E1EF2EF12CCB
:103E80000DE018E020C60833F3E91F0709F4AAC0C3
:103E900078F5073233E9130711F40C945E29B8F46E
:103EA000023093E9190709F49AC028F4003910493F
:103EB00009F4B3CE2CCF0032F3E91F0709F44CCF3D
:103EC0000532134909F023CF80E091E1A3CF0932F5
:103ED00033E9130709F489C0B8F3013393E91907EB
:103EE00021F00533134909F012CF80E090E192CF21
:103EF0000938E4E91E07C8F50738F4E91F0708F098
:103F00008FC0013824E9120709F4B9C590F40054B0
:103F100013490230110508F0FACE83E194E0909342
:103F20005C0480935B0445E6E42EF12C08E617E080
:103F3000CAC50638144909F0EACE83E094E09093AC
:103F40005C0480935B0480EE91E090934604809340
:103F5000450480E491E090934404809343042BE370
:103F6000E22EF12C08EE16E0AEC5053095EB1907F0
:103F700089F038F401311C4A09F0C9CE83E194E19B
:103F800017CF0930F5EB1F0709F44DC00530154C6C
:103F900009F0BDCE88E090E190935C0480935B04CF
:103FA00060EB70E08AE399E00AC082E090E19093D0
:103FB0005C0480935B046CE970E08AEB9CE00E94F7
:103FC0006E0D10E000E07FC582E091E190935C040B
:103FD00080935B0460E970E08EE89BE0F0CF83E0C3
:103FE00094E0E6CE83E194E0E3CE83E096E1E0CE98
:103FF00083E094E090935C0480935B0480EE91E016
:10400000909346048093450480E491E090934404A7
:10401000809343049BE2E92EF12C0DEB16E053C58F
:1040200083E194E0E7CF80E090E190935C0480939B
:104030005B0460EC70E08AE798E00E946E0D80E916
:1040400091E09093460480934504BBCF889A88986A
:1040500088988898209100012CB122B32CB120912E
:104060000001889A3AC6E82EF12CFE2CEE24EE24AC
:1040700038EFF322B3E0EE0FFF1FBA95E1F7E07ED1
:10408000F770EE2AFF2A269526952695E22AC9C6BC
:10409000909100010CB112B3BCB1A0910001889ABB
:1040A000889A88988898889820910001ECB1E2B2AB
:1040B000DCB08091000130E0F5E035952795FA9568
:1040C000E1F723703327F0E0F595E795F595E7954F
:1040D000EC70FF272E2B3F2BF12CF594E794E0E1B9
:1040E000EE22FF24E22AF32AF4E0DF9E900111245D
:1040F00020723327E22AF32A28E0829FF00111245C
:10410000E07CFF27EE2AFF2A889A892F90E0F5E0CD
:1041100095958795FA95E1F78370069506950C704D
:10412000802B16951071812B94E0B99F900111247A
:104130002072822BE8E0AE9FD0011124A07C8A2B54
:10414000F82A43FF03C0FE24EF24FE24672B09F462
:1041500068C6C701807E97709701232F3327269565
:1041600026952695822B932BFE2CEE24FF0CFF0C1C
:10417000FF0CE82AF92A55C68091620590916305E3
:10418000009709F4B8C369817A816115710509F452
:10419000B0C340916405509165052D813E81421761
:1041A000530708F4A6C30E94772E8D819E819093B9
:1041B0006705809366051E821D82CE0101960E94CE
:1041C000481961E070E080E090E00E94F20968ED3B
:1041D00072E0CE0101960E94EB19CE0101960E9479
:1041E0001A198C016AED72E0CE0107960E94EB1954
:1041F000CE0107960E941A19BC016F5F7F4FA8017C
:10420000CE01C7960E94FC19CE0107960E9448195C
:10421000CE0101960E944819CE01C7960E9403194B
:104220006CED72E0CE0101960E94EB19CE01019671
:104230000E941A198C0168ED72E0CE0107960E9467
:10424000EB19CE0107960E941A19BC016F5F7F4FD0
:10425000A801CE01C1960E94FC19CE0107960E94CA
:104260004819CE0101960E944819CE01C1960E94BC
:1042700003196EED72E0CE0101960E94EB19CE019A
:1042800001960E941A198C016CED72E0CE0107961E
:104290000E94EB19CE0107960E941A19BC016F5FAC
:1042A0007F4FA801CE018B960E94FC19CE01079684
:1042B0000E944819CE0101960E944819CE018B96A2
:1042C0000E94031960EE72E0CE0101960E94EB1984
:1042D000CE0101960E941A198C016EED72E0CE019A
:1042E00007960E94EB19CE0107960E941A19BC018D
:1042F0006F5F7F4FA801CE0185960E94FC19CE0109
:1043000007960E944819CE0101960E944819CE01D5
:1043100085960E94031962EE72E0CE0101960E941A
:10432000EB19CE0101960E941A198C0160EE72E021
:10433000CE0107960E94EB19CE0107960E941A192A
:10434000BC016F5F7F4FA801CE014F960E94FC1900
:10435000CE0107960E944819CE0101960E94481985
:10436000CE014F960E94031964EE72E0CE010196D1
:104370000E94EB19CE0101960E941A198C0162EE7F
:1043800072E0CE0107960E94EB19CE0107960E94BB
:104390001A19BC016F5F7F4FA801CE0149960E9498
:1043A000FC19CE0107960E944819CE0101960E9481
:1043B0004819CE0149960E94031966EE72E0CE01BB
:1043C00001960E94EB19CE0101960E941A198C01E8
:1043D00064EE72E0CE0107960E94EB19CE010796BB
:1043E0000E941A19BC016F5F7F4FA801CE0143964E
:1043F0000E94FC19CE0107960E944819CE01019631
:104400000E944819CE0143960E94031968EE72E09B
:10441000CE0101960E94EB19CE0101960E941A1955
:104420008C0166EE72E0CE0107960E94EB19CE0178
:1044300007960E941A19BC016F5F7F4FA801CE0139
:104440000D960E94FC19CE0107960E944819CE01D4
:1044500001960E944819CE010D960E94031980E131
:1044600090E8909374048093730490935004809325
:104470004F048FEF97E090937604809375049093A8
:10448000520480935104BE01695C7F4FCE010196B6
:104490000E94D11962E370E0CE0101960E944C188F
:1044A000CE0101960E944819BE016F5C7F4FCE017C
:1044B00001960E94D1196BE470E0CE0101960E9432
:1044C0004C18CE0101960E944819BE01655D7F4FD0
:1044D000CE0101960E94D11964E670E0CE010196EA
:1044E0000E944C18CE0101960E944819BE016B5DD6
:1044F0007F4FCE0107960E94D1196AEE72E0CE017D
:1045000007960E947A19BC01CE0101960E94D1192A
:104510006DE770E0CE0101960E944C18CE01019625
:104520000E944819CE0107960E944819BE01615E9B
:104530007F4FCE0107960E94D1196AEE72E0CE013C
:1045400007960E947A19BC01CE0101960E94D119EA
:1045500066E970E0CE0101960E944C18CE010196EA
:104560000E944819CE0107960E944819BE01675E55
:104570007F4FCE0107960E94D1196DEE72E0CE01F9
:1045800007960E947A19BC01CE0101960E94D119AA
:104590006FEA70E0CE0101960E944C18CE010196A0
:1045A0000E944819CE0107960E944819BE016D5E0F
:1045B0007F4FCE0107960E94D1196FEE72E0CE01B7
:1045C00007960E947A19BC01CE0101960E94D1196A
:1045D00068EC70E0CE0101960E944C18CE01019665
:1045E0000E944819CE0107960E944819BE01635FD8
:1045F0007F4FCE0107960E94D11963EF72E0CE0182
:1046000007960E947A19BC01CE0101960E94D11929
:1046100061EE70E0CE0101960E944C18CE01019629
:104620000E944819CE0107960E944819CE010D96A6
:104630000E944819CE0143960E944819CE0149961E
:104640000E944819CE014F960E944819CE018596C6
:104650000E944819CE018B960E944819CE01C1963E
:104660000E944819CE01C7960E94481960E08091C7
:10467000B6040E947F0960E08091B7040E947F0920
:1046800061E08091B9040E947F0961E08091B804E3
:104690000E947F098091C404E091BC04F091BD04A4
:1046A0009081892B80838091C504E091C004F091B2
:1046B000C10490818095892380838091B6040E94F3
:1046C000B0098C018091B6040E94B0099801281BA2
:1046D000390B2C5F3F4F2930310508F023C1800F83
:1046E000911F95958795A1E0ADAF2FEF33E01901AC
:1046F000281A390A60E08091B9040E947F0960E0BD
:104700008091B8040E947F0961E08091B6040E9404
:104710007F0961E08091B7040E947F098091C704FE
:10472000E091C204F091C304908180958923808335
:104730008091C604E091BE04F091BF049081892B62
:1047400080838091B8040E94B0098C018091B804E4
:104750000E94B0097C01C8018E199F09049609972F
:1047600008F0E2C0E00EF11EF594E79461E080915C
:10477000B9040E947F0960E08091B6040E947F091D
:104780008091C404E091BC04F091BD0490818095B7
:10479000892380838091C704E091C204F091C3040F
:1047A0009081892B80838091B8040E94B0098C018C
:1047B0008091B6040E94B009C090BA04D090BB04A6
:1047C000C114D10409F4B2C0BC01990F880B990B34
:1047D0000E94EA292B013C01B801110F880B990BAB
:1047E0000E94EA299B01AC01C301B2010E94B32BD4
:1047F00020E030E040E85FE30E94462B2B013C01C3
:10480000B101032C000C880B990B0E94EA29A3012B
:1048100092010E94252A2B013C01B60190E080E024
:104820000E94E829A30192010E94252A20E030E09D
:1048300040E85AE30E94252A0E94252C8B01EDAD09
:10484000E11102C010E000E061E089E30E947F090D
:1048500061E088E30E947F0989E30E947D0788E385
:104860000E947D076801FBE0CF1AD1082DEDC2162A
:1048700023E0D20608F05FC0A091D004B091D1042B
:104880009101330C440B550B2E5531094109510947
:104890000E940D2B2FE033E040E050E00E94E32A1D
:1048A00089013093FD022093FC022FEF33E02E1993
:1048B0003F09032E000C440B550B235531094109C8
:1048C0005109A091D204B091D3040E940D2BA501EF
:1048D00094010E94E32AB9013093FF022093FE0263
:1048E0008091990490919A0408171907C4F580E003
:1048F00053C00E94FF2C89819A8190936305809315
:1049000062058B819C8190936505809364058D8100
:104910009E8190936705809366051A8219821C8296
:104920001B8249CC1DAEE1CE1DAE20CF081B190B5A
:1049300001501C4F84CF8091FC029091FD020297A0
:10494000CC97A8F68091FE029091FF0201978336E2
:10495000910568F61092FD021092FC02C8CF2091DA
:104960009D0430919E04820F931F081719070CF0C5
:10497000BECF80919B0490919C04681779070CF43A
:10498000B6CF20919F043091A004280F391F81E0F9
:10499000621773070CF0ABCF9091B2049093B304FD
:1049A0008093B2044091FC025091FD023DEDC3168C
:1049B00033E0D30628F580917C0490917D0448175C
:1049C0005907F4F02091800430918104820F931FE5
:1049D00048175907ACF46091FE027091FF022091D4
:1049E0007E0430917F046217730754F08091820433
:1049F00090918304280F391F91E0621773070CF020
:104A000090E0809195048093960490939504CA0158
:104A10000E9478188091FE029091FF020E947818FF
:104A20000E94520955C30E94110C10925A04109210
:104A3000590490925E0480925D0483E194E0909327
:104A40005C0480935B0480EE91E090934604809335
:104A5000450480E491E0909344048093430435E45A
:104A6000E32EF12C03E217E02EC00E94110C1092ED
:104A70005A041092590490925E0480925D0487E07B
:104A800094E0DDCF0E94110C10925A041092590448
:104A900090925E0480925D0483E090E090935C04C9
:104AA00080935B0480EE91E09093460480934504EC
:104AB00080E491E0909344048093430493E0E92ED2
:104AC000F12C07E718E020915C04822F82958F700B
:104AD00090E0817099279093600480935F040115A2
:104AE000110581F069E070E084EB96E00E94E40A31
:104AF000B701C8010E94E40A66E070E08EEA96E021
:104B00000E94E40A60E08FE394E00E94441060E0B9
:104B10008FE394E00E94900D80915D0490915E047B
:104B20008838944909F0D0C11092FB0220EE3FEF83
:104B300050E040E070E060E08FE394E00E940910F4
:104B4000E0906904F0906A0480915B0480FF03C0E8
:104B50008EE2E82EF12C10E000E030E020E050E0A2
:104B600040E070E060E08FE394E00E94D60D809119
:104B70005B0480FD10C070E060E08091650490915E
:104B800066040E94310B70E060E0809167049091B0
:104B900068040E94310B8B988A9880910201877873
:104BA00080930201A5988EB1877C8EB94091020155
:104BB0008F2D90E09C0105E0220F331F0A95E1F74D
:104BC0002076242B209302014EB19C01220F331F2B
:104BD000220F331F2073242B2EB944B39C01220FC4
:104BE000331F2072242B24BB4EB19C013595279591
:104BF000359527952870242B2EB920910201E3E0EA
:104C000095958795EA95E1F78871822B809302014B
:104C10008998899A80910201877880930201A598EA
:104C20008EB1877C8EB940910201C7019701F5E0F2
:104C3000220F331FFA95E1F72076242B20930201EF
:104C40004EB19701220F331F220F331F2073242BE5
:104C50002EB944B39701220F331F2072242B24BB9B
:104C60004EB1970135952795359527952870242BBA
:104C70002EB92091020103E0959587950A95E1F7F9
:104C80008871822B809302018998899A8A9A8091EF
:104C900001018778809301019D988DB1877C8DB942
:104CA00040915B0450915C0480915D0490915E049E
:104CB00046FD13C0889A88988898889820910001AA
:104CC0002CB122B32CB120910001889A40FD05C07F
:104CD0008938A2E19A0709F0B9C98131954161F497
:104CE000889A889888988898809100018CB182B3BE
:104CF0008CB180910001889ABA0164707727889AF4
:104D000088988898889844FFC3C9209100018CB185
:104D1000F2B3ECB19091000130E055E03595279564
:104D20005A95E1F72370869586958C70822B2F2FEC
:104D300026952071822BF4E0EF9F900111242072C0
:104D4000822BA8E09A9F90011124207C822B889AC4
:104D5000889A889888988898209100019CB1A2B37D
:104D6000FCB1E091000130E0B5E035952795BA95AA
:104D7000E1F72370969596959C70922B2A2F269595
:104D80002071922BA4E0FA9F900111242072922BA3
:104D9000F8E0EF9F90011124207C922B889A889A4A
:104DA00088988898889820910001ECB0A2B3FCB153
:104DB000E091000130E015E0359527951A95E1F76F
:104DC0002370E694E6943E2D3C70E32EE22A2A2FCF
:104DD00026952071E22AA4E0FA9F90011124207206
:104DE000E22AF8E0EF9F90011124207C2E29889A76
:104DF000E92FF0E0672B09F436C9E22EF12CFE2CE6
:104E0000EE24EE2428EFF22203E0EE0FFF1F0A95B6
:104E1000E1F7E07EF770EE2AFF2A86958695869563
:104E2000E82A8091FB02882399F0C70155E0969506
:104E300087955A95E1F780729927970136952795BE
:104E40002F713327822B932BF0ECEF22E82AF92ADB
:104E5000889A8B9A809101018867809301019D9ABD
:104E60008DB188638DB940FD14C000914904109143
:104E70004A040150110920914704309148042150FF
:104E8000310950E040E070E060E08FE394E00E9480
:104E9000D60D2FE1E2162FEFF206B1F486E08983FA
:104EA000AE014F5F5F4F61E08AE390E00E94250A08
:104EB00080915B0490915C048F7E90935C0480935E
:104EC0005B0481E08093FB021092790460E08FE341
:104ED00094E00E94441084E080937804BB24B3944F
:104EE000B0927704B092530470E060E08FE394E0F6
:104EF0000E9405186FEF77E08FE394E00E94051899
:104F00008091750490917604109274041092730449
:104F10001092500410924F049093520480935104C5
:104F2000F12CE12C0FE110E021EF30E050E040E007
:104F300070E060E08FE394E00E94860E12E0109330
:104F400053048091750490917604CC24CA94DC2C8F
:104F5000D0927404C0927304D0925004C0924F0453
:104F600090935204809351044AE050E06EE170E067
:104F70008AE492E00E946E1880E098EF90937404A7
:104F8000809373049093500480934F048FEF97E0C5
:104F90009093760480937504909352048093510407
:104FA00042E350E065E070E08BE592E00E946E180D
:104FB0004BE450E065E070E087E692E00E946E18F6
:104FC00044E650E065E070E081E792E00E946E18F0
:104FD0004DE750E065E070E08DE792E00E946E18CA
:104FE00046E950E065E070E086E892E00E946E18C5
:104FF0004FEA50E065E070E081E992E00E946E18AF
:1050000048EC50E065E070E089E992E00E946E189B
:1050100041EE50E065E070E082EA92E00E946E1896
:10502000B0925304209175043091760488E092E4A4
:1050300090937404809373049093500480934F046E
:1050400030935204209351044AEF50E065E070E041
:105050008CEA92E00E946E181093530480917504BC
:1050600090917604909352048093510410927404AA
:10507000109273041092500410924F0407E210E053
:105080002FEB30E04EE051E06EE170E08FE394E012
:105090000E94860ED0927404C0927304D092500481
:1050A000C0924F041092760410927504109252042C
:1050B000109251044BE151E062E370E08AEC92E01F
:1050C0000E946E184FE2842E43E0942EA12CB12C46
:1050D00085E093E00E94A308892B09F4C7CA69E41C
:1050E00072E0CE0101960E94EB190E94550897FDCF
:1050F00043C88F8318860D811E810F5F1F4FB80133
:10510000CE0101960E945219882379F329813A81B0
:105110008D819E81BE01695F7F4F820F931F0E9428
:10512000772E1E830D83E1CF0E94110C10925A043A
:105130001092590480E295E190935E0480935D049F
:105140000C94C11E0E94110C10925A041092590422
:1051500086E295E190935E0480935D0483E194E0A0
:1051600090935C0480935B040CE0E02EF12C05E648
:1051700018E0A9CC0E94110C10925A041092590404
:1051800080E193E590935E0480935D0483E19EE06B
:1051900090935C0480935B0480EE91E090934604CE
:1051A0008093450480E491E0909344048093430409
:1051B00012E0E12EF12C03E618E085CC0E94110CE0
:1051C00010925A041092590484E198E690935E0478
:1051D00080935D0483E094E090935C0480935B048F
:1051E00080EE91E0909346048093450480E491E042
:1051F0009093440480934304B3E0EB2EF12C00E63B
:1052000018E061CC09E812E10E94110C10925A04D6
:105210001092590410935E0400935D040C94871E51
:1052200007E413E8F1CF03E619E1EECF0E94110C79
:1052300010925A041092590489E897E790935E04FB
:1052400080935D040C94221F0E94110C10925A044A
:105250001092590490925E0480925D0483E094E180
:1052600090935C0480935B0480EE91E090934604FD
:105270008093450480E491E0909344048093430438
:10528000E2E0EE2EF12C0BE018E01DCC0E94110C98
:1052900010925A041092590410935E0400935D0416
:1052A0000C94AC1E0E94110C10925A0410925904D6
:1052B00087E293E990935E0480935D0483E094E039
:1052C00090935C0480935B0480E991E090934604A2
:1052D0008093450480EF90E09093440480934304CE
:1052E0006EE1E62EF12C00ED17E0EDCB0E94110CE3
:1052F00010925A041092590483E590E290935E0450
:1053000080935D0487E194E10C94D81E0E94110CF7
:1053100010925A041092590410935E0400935D0495
:105320000C94BE1F0E94110C10925A041092590442
:1053300081E390E890935E0480935D040C94371FA2
:105340008CEF94E00E94481982E095E00E94481991
:1053500088E095E00E9448198EE095E00E94481987
:1053600084E195E00E9448198AE195E00E9448197D
:1053700080E295E00E94481986E295E00E94481973
:105380008CE295E00E94481982E395E00E9448195A
:1053900088E395E00E9448198EE395E00E94481941
:1053A00084E495E00E9448198AE495E00E94481937
:1053B00080E595E00E94481986E595E00E9448192D
:1053C0008CE595E00E94481982E695E00C94481916
:1053D000E89409C097FB3EF490958095709561958F
:1053E0007F4F8F4F9F4F9923A9F0F92F96E9BB2745
:1053F0009395F695879577956795B795F111F8CFC1
:10540000FAF4BB0F11F460FF1BC06F5F7F4F8F4F2B
:105410009F4F16C0882311F096E911C0772321F021
:105420009EE8872F762F05C0662371F096E8862FB9
:1054300070E060E02AF09A95660F771F881FDAF710
:10544000880F9695879597F908950E94382A0C94AD
:10545000A92A0E949B2A38F00E94A22A20F09523B4
:1054600011F00C94922A0C94982A11240C94DD2AA1
:105470000E94BA2A70F3959FC1F3950F50E0551F13
:10548000629FF001729FBB27F00DB11D639FAA2799
:10549000F00DB11DAA1F649F6627B00DA11D661FE8
:1054A000829F2227B00DA11D621F739FB00DA11D09
:1054B000621F839FA00D611D221F749F3327A00DC3
:1054C000611D231F849F600D211D822F762F6A2F5F
:1054D00011249F5750409AF0F1F088234AF0EE0FC4
:1054E000FF1FBB1F661F771F881F91505040A9F7F1
:1054F0009E3F510580F00C94922A0C94DD2A5F3F68
:10550000E4F3983ED4F3869577956795B795F7952C
:10551000E7959F5FC1F7FE2B880F911D96958795A4
:1055200097F9089597F99F6780E870E060E0089523
:105530009FEF80EC089500240A94161617061806AB
:105540000906089500240A94121613061406050687
:105550000895092E0394000C11F4882352F0BB0F18
:1055600040F4BF2B11F460FF04C06F5F7F4F8F4F7B
:105570009F4F089557FD9058440F551F59F05F3FB6
:1055800071F04795880F97FB991F61F09F3F79F065
:1055900087950895121613061406551FF2CF4695E7
:1055A000F1DF08C0161617061806991FF1CF869569
:1055B0007105610508940895E894BB27662777274D
:1055C000CB0197F90895052E97FB1EF400940E94D5
:1055D000FA2A57FD07D00E94152B07FC03D04EF482
:1055E0000C94FA2A50954095309521953F4F4F4F96
:1055F0005F4F089590958095709561957F4F8F4F7F
:105600009F4F08950E94372BA59F900DB49F900D3A
:10561000A49F800D911D11240895B7FF0C94022BB7
:105620000E94022B821B930B0895A1E21A2EAA1B43
:10563000BB1BFD010DC0AA1FBB1FEE1FFF1FA21742
:10564000B307E407F50720F0A21BB30BE40BF50B3F
:10565000661F771F881F991F1A9469F760957095C8
:10566000809590959B01AC01BD01CF010895A29F4B
:10567000B001B39FC001A39F700D811D1124911D26
:10568000B29F700D811D1124911D08955058BB27A4
:10569000AA270E945E2B0C94A92A0E949B2A38F00C
:1056A0000E94A22A20F039F49F3F19F426F40C94AA
:1056B000982A0EF4E095E7FB0C94922AE92F0E94B9
:1056C000BA2A58F3BA17620773078407950720F0C0
:1056D00079F4A6F50C94DC2A0EF4E0950B2EBA2F83
:1056E000A02D0B01B90190010C01CA01A0011124E8
:1056F000FF27591B99F0593F50F4503E68F11A1694
:10570000F040A22F232F342F4427585FF3CF469524
:1057100037952795A795F0405395C9F77EF41F1646
:10572000BA0B620B730B840BBAF09150A1F0FF0F10
:10573000BB1F661F771F881FC2F70EC0BA0F621FFC
:10574000731F841F48F4879577956795B795F795EC
:105750009E3F08F0B0CF9395880F08F09927EE0F81
:105760009795879508950E94C72B0C94A92A0E94AB
:10577000A22A58F00E949B2A40F029F45F3F29F0AA
:105780000C94922A51110C94DD2A0C94982A0E94B0
:10579000BA2A68F39923B1F3552391F3951B550B5E
:1057A000BB27AA2762177307840738F09F5F5F4FF4
:1057B000220F331F441FAA1FA9F335D00E2E3AF033
:1057C000E0E832D091505040E695001CCAF72BD04B
:1057D000FE2F29D0660F771F881FBB1F261737079C
:1057E0004807AB07B0E809F0BB0B802DBF01FF27CE
:1057F00093585F4F3AF09E3F510578F00C94922AEF
:105800000C94DD2A5F3FE4F3983ED4F386957795B8
:105810006795B795F7959F5FC9F7880F911D969586
:10582000879597F90895E1E0660F771F881FBB1FE2
:10583000621773078407BA0720F0621B730B840B8F
:10584000BA0BEE1F88F7E09508950E942C2C6894FF
:10585000B1110C94DD2A08950E94C22A88F09F5746
:1058600098F0B92F9927B751B0F0E1F0660F771F84
:10587000881F991F1AF0BA95C9F714C0B13091F07A
:105880000E94DC2AB1E008950C94DC2A672F782F5F
:105890008827B85F39F0B93FCCF38695779567953F
:1058A000B395D9F73EF490958095709561957F4FAB
:1058B0008F4F9F4F0895EE0FFF1F881F8BBF0790DC
:1058C000F691E02D19940F931F93CF93DF938230BD
:1058D000910510F482E090E0E0916A05F0916B058B
:1058E00030E020E0B0E0A0E0309799F421153105D8
:1058F00009F44AC0281B390B24303105D8F58A81B8
:105900009B816115710589F1FB0193838283FE01FF
:1059100011C0408151810281138148175907E0F07D
:105920004817590799F4109761F012960C93129743
:1059300013961C933296CF01DF91CF911F910F9157
:10594000089500936A0510936B05F4CF2115310576
:1059500051F04217530738F0A901DB019A01BD014C
:10596000DF01F801C1CFEF01F9CF90936B05809370
:105970006A05CDCFFE01E20FF31F81939193225070
:10598000310939832883D7CF209168053091690583
:10599000232B41F4209102023091030230936905D8
:1059A00020936805209100023091010221153105F4
:1059B00041F42DB73EB74091040250910502241BDB
:1059C000350BE0916805F0916905E217F307A0F443
:1059D0002E1B3F0B2817390778F0AC014E5F5F4F45
:1059E0002417350748F04E0F5F1F50936905409309
:1059F0006805819391939FCFF0E0E0E09CCFCF9337
:105A0000DF930097E9F0FC01329713821282A09194
:105A10006A05B0916B05ED0130E020E01097A1F42C
:105A200020813181820F931F209168053091690593
:105A30002817390709F061C0F0936905E0936805FC
:105A4000DF91CF910895EA01CE17DF07E8F54A818B
:105A50005B819E0141155105B1F7E901FB83EA83A2
:105A600049915991C40FD51FEC17FD0761F480814E
:105A700091810296840F951FE90199838883828121
:105A800093819B838A83F0E0E0E012968D919C9154
:105A900013970097B9F52D913C911197CD0102967E
:105AA000820F931F209168053091690528173907E7
:105AB00039F6309751F510926B0510926A05B09344
:105AC0006905A0936805BCCFD383C283408151810F
:105AD000840F951FC817D90761F44E5F5F4F888107
